:100000000C9485000C94A2000C94A2000C94A20005
:100010000C94A2000C94A2000C94A2000C94A200D8
:100020000C94A2000C94A2000C94A2000C94A200C8
:100030000C94A2000C94A2000C94A2000C94A200B8
:100040000C94A2000C94A2000C94A2000C94A200A8
:100050000C94A2007C11C711C711C711C7116B11F5
:10006000C711C711C711C711C711C711C711821115
:100070007711C71188118E11931199119F11A51134
:10008000AB11B111B711BD11C711C711C711711152
:10009000C711C711C7110F11C71135113F11201119
:1000A0001511C7114F116511C7114A11C7115A1106
:1000B0003011C711C71125111A115F1144112A11EE
:1000C000C711C711C71139115411C711C711C71171
:1000D000C711C711C7110F11C71135113F112011D9
:1000E0001511C7114F116511C7114A11C7115A11C6
:1000F0003011C711C71125111A115F1144112A11AE
:10010000C711C711C7113911541111241FBECFE5F2
:10011000D8E0DEBFCDBF11E0A0E6B0E0EAEAFDE244
:1001200002C005900D92A63FB107D9F711E0A6EFE6
:10013000B1E001C01D92AB3FB107E1F70E94E315AA
:100140000C94D3160C940000EF92FF920F93DF9360
:10015000CF93CDB7DEB760970FB6F894DEBF0FBE72
:10016000CDBFA82F002309F461C07E010894E11CD3
:10017000F11C88E0F70111928A95E9F729833A8307
:100180004B835C836D837E83AF83988780E2801B83
:10019000E82FFF27E7FDF0954D815E816F8178851F
:1001A000181684F01D861E861F86188A88279927B0
:1001B0008E1B9F0B04C076956795579547958A953A
:1001C000D2F728C0202F332727FD3095DB01CA0145
:1001D000022E04C0B695A795979587950A94D2F7F5
:1001E0008D879E87AF87B88B04C0440F551F661F4D
:1001F000771FEA95D2F789819A81AB81BC8104C0CF
:10020000B695A795979587952A95D2F7482B592BA0
:100210006A2B7B2B49875A876B877C8729853A8590
:100220004B855C856D857E85AF8598898A2F609624
:100230000FB6F894DEBF0FBECDBFCF91DF910F9107
:10024000FF90EF900895EF92FF920F931F937B0121
:100250008C0120E030E040E05FE40E949F048823AE
:100260008CF0C801B70120E030E040E05FE40E947C
:100270009B020E942D059B01AC0120503040404064
:10028000504806C0C801B7010E942D059B01AC0172
:10029000B901CA011F910F91FF90EF900895A0E05E
:1002A000B0E0E5E5F1E00C949C16DC012B01FA01CD
:1002B0009C91923008F439C1EB018881823008F4B6
:1002C00033C1943069F4843009F02FC111969C91A8
:1002D00011978981981709F428C1ADE9B0E025C1CB
:1002E000843009F421C18230A9F4923009F01DC193
:1002F0009A01AD0188E0EA010990AE01E901099295
:100300009E018150C1F7E201898111969C91892358
:10031000818308C1923009F407C112962D903C9058
:100320001397EB018A819B811496AD90BD90CD907F
:10033000DC901797EC80FD800E811F819101281BB6
:10034000390BB90137FF04C066277727621B730B8F
:10035000603271050CF061C0121613066CF537019E
:100360004801062E04C096948794779467940A9463
:10037000D2F721E030E040E050E004C0220F331F0C
:10038000441F551F6A95D2F72150304040405040DD
:100390002E213F21402351232115310541055105CF
:1003A00021F021E030E040E050E079018A01E628C8
:1003B000F728082919293CC0232BD1F1260E371E16
:1003C00035014601062E04C096948794779467946D
:1003D0000A94D2F721E030E040E050E004C0220F60
:1003E000331F441F551F6A95D2F7215030404040BB
:1003F00050402A213B214C215D2121153105410529
:10040000510521F021E030E040E050E059016A015F
:10041000A628B728C828D9280BC0821593052CF028
:100420001C01AA24BB24650103C0EE24FF2487011C
:1004300011969C91D20111968C91981709F445C0A0
:10044000992339F0A80197012A193B094C095D0944
:1004500006C0A60195012E193F09400B510B57FD0F
:1004600008C01182338222822483358346835783D6
:100470001DC081E081833382228288279927DC0195
:10048000821B930BA40BB50B84839583A683B78340
:100490000DC0220F331F441F551F2483358346830D
:1004A000578382819381019793838283248135814D
:1004B00046815781DA01C9010197A109B1098F5F0E
:1004C0009F4FAF4FBF4328F30BC0918333822282EB
:1004D000EA0CFB1C0C1D1D1DE482F58206831783AC
:1004E00083E08083248135814681578157FF1AC07C
:1004F000C901AA2797FDA095BA2F81709070A070AE
:10050000B0705695479537952795822B932BA42B42
:10051000B52B84839583A683B783828193810196CB
:1005200093838283DF0101C0D201CD01CDB7DEB755
:10053000E2E10C94B816A0E2B0E0E1EAF2E00C943B
:10054000A81669837A838B839C832D833E834F8394
:100550005887E9E0EE2EF12CEC0EFD1ECE0101963F
:10056000B7010E941E078E010F5E1F4FCE01059638
:10057000B8010E941E078A8991E089278A8BC701EA
:10058000B801AE01475E5F4F0E944F010E944906CD
:10059000A096E6E00C94C416A0E2B0E0E2EDF2E032
:1005A0000C94A81669837A838B839C832D833E8366
:1005B0004F835887F9E0EF2EF12CEC0EFD1ECE0193
:1005C0000196B7010E941E078E010F5E1F4FCE01DC
:1005D0000596B8010E941E07C701B801AE01475E2B
:1005E0005F4F0E944F010E944906A096E6E00C94DE
:1005F000C416A0E2B0E0EFEFF2E00C949C16698321
:100600007A838B839C832D833E834F835887CE01CF
:100610000196BE01675F7F4F0E941E07CE010596BF
:10062000BE016F5E7F4F0E941E079985923088F051
:1006300089898230C8F0943019F4823051F404C0B2
:10064000843029F4923081F48DE990E0C6C0923074
:1006500049F420E09A858A89981321E02A87CE01FF
:100660000996BBC0823049F420E09A858A899813A4
:1006700021E02A8BCE014196B0C02D843E844F8468
:1006800058886D887E888F88988CEE24FF24870197
:10069000AA24BB24650140E050E060E070E0E0E0A7
:1006A000F0E0C10181709070892BE9F0E60CF71C35
:1006B000081D191D9A01AB012A0D3B1D4C1D5D1D26
:1006C00080E090E0A0E0B0E0E614F704080519052A
:1006D00020F481E090E0A0E0B0E0BA01A901480F69
:1006E000591F6A1F7B1FAA0CBB1CCC1CDD1C97FE6C
:1006F00008C081E090E0A0E0B0E0A82AB92ACA2AA8
:10070000DB2A3196E032F10549F0660C771C881C33
:10071000991C5694479437942794C3CFFA85EA8955
:100720002B893C898B859C85280F391F2E5F3F4F75
:1007300017C0CA0181709070892B61F016950795DA
:10074000F794E79480E090E0A0E0B0E8E82AF92A86
:100750000A2B1B2B76956795579547952F5F3F4F33
:1007600077FDE7CF0CC0440F551F661F771F17FD9D
:100770004160EE0CFF1C001F111F21503040403023
:1007800090E0590790E0690790E4790760F32B8FB8
:100790003C8FDB01CA018F779070A070B0708034FD
:1007A0009105A105B10561F447FD0AC0E114F1040A
:1007B0000105110529F0405C5F4F6F4F7F4F407876
:1007C0001A8EFE1711F081E08A8F4D8F5E8F6F8F2A
:1007D00078A383E0898FCE0149960E944906A096AE
:1007E000E2E10C94B816A8E1B0E0E9EFF3E00C9474
:1007F000A41669837A838B839C832D833E834F83E6
:100800005887B9E0EB2EF12CEC0EFD1ECE010196BF
:10081000B7010E941E078E010F5E1F4FCE01059685
:10082000B8010E941E072985223008F47EC039894C
:10083000323010F4B8017CC08A859A8989278A876A
:10084000243011F0223031F4231709F06EC06DE925
:1008500070E06EC0343039F41D861E861F86188AFB
:100860001C861B8604C0323021F484E08987B701DE
:100870005FC02B853C858B899C89281B390B3C8765
:100880002B87ED84FE840F851889AD88BE88CF88BC
:10089000D88CEA14FB040C051D0540F4EE0CFF1C7B
:1008A000001F111F215030403C872B8720E030E093
:1008B00040E050E080E090E0A0E0B0E460E070E074
:1008C000EA14FB040C051D0540F0282B392B4A2B9C
:1008D0005B2BEA18FB080C091D09B695A79597959F
:1008E0008795EE0CFF1C001F111F6F5F7F4F6F314C
:1008F000710531F7DA01C9018F779070A070B0707F
:1009000080349105A105B10561F427FD0AC0E11409
:10091000F1040105110529F0205C3F4F4F4F5F4F57
:1009200020782D873E874F87588BBE01675F7F4FAA
:10093000CB010E9449066896EAE00C94C016A8E133
:10094000B0E0E5EAF4E00C94A81669837A838B831F
:100950009C832D833E834F83588789E0E82EF12CBA
:10096000EC0EFD1ECE010196B7010E941E078E01FE
:100970000F5E1F4FCE010596B8010E941E078985A4
:10098000823040F08989823028F0C701B8010E9486
:10099000960701C08FEF6896E6E00C94C416A8E0B5
:1009A000B0E0E5EDF4E00C94A5169B01AC0183E00A
:1009B0008983DA01C9018827B7FD83959927AA277A
:1009C000BB27B82E211531054105510519F482E0E8
:1009D00089833AC08823A9F0203080E0380780E07E
:1009E000480780E8580729F460E070E080E09FEC59
:1009F00030C0EE24FF248701E21AF30A040B150B22
:100A000002C079018A018EE1C82ED12CDC82CB8212
:100A1000ED82FE820F831887C801B7010E94FA0594
:100A200001971816190684F4082E04C0EE0CFF1C5A
:100A3000001F111F0A94D2F7ED82FE820F831887E0
:100A4000C81AD90ADC82CB82BA82CE0101960E94F2
:100A500049062896E9E00C94C116ACE0B0E0E3E367
:100A6000F5E00C94AC1669837A838B839C83CE016A
:100A70000196BE016B5F7F4F0E941E078D81823001
:100A800061F1823050F1843021F48E81882351F15C
:100A90002EC02F81388537FD20C06E812F31310562
:100AA0001CF06623F9F023C08EE190E0821B930BCB
:100AB00029853A854B855C8504C0569547953795C1
:100AC00027958A95D2F76623B1F0509540953095D9
:100AD00021953F4F4F4F5F4F0EC020E030E040E088
:100AE00050E009C02FEF3FEF4FEF5FE704C020E079
:100AF00030E040E050E8B901CA012C96E2E00C94E5
:100B0000C816A8E0B0E0E7E8F5E00C94A4167B0175
:100B10008C01611571058105910519F482E08983C5
:100B200060C083E089838EE1C82ED12CDC82CB8229
:100B3000ED82FE820F831887C801B7010E94FA0573
:100B4000FC013197F7FF3BC0222733272E1B3F0BB9
:100B500057016801022E04C0D694C794B794A79495
:100B60000A94D2F740E050E060E070E081E090E06D
:100B7000A0E0B0E004C0880F991FAA1FBB1F2A95F0
:100B8000D2F70197A109B1098E219F21A023B1239A
:100B90000097A105B10521F041E050E060E070E070
:100BA0004A295B296C297D294D835E836F83788771
:100BB0008EE190E08E1B9F0B9C838B8312C030973D
:100BC00081F00E2E04C0EE0CFF1C001F111F0A94B2
:100BD000D2F7ED82FE820F831887CE1ADF0ADC82FD
:100BE000CB821A82CE0101960E9449062896EAE03D
:100BF0000C94C016EF92FF920F931F937B018C0110
:100C000080E0E81680E0F80681E0080780E0180739
:100C100088F48FEFE816F1040105110531F028F092
:100C200088E090E0A0E0B0E017C080E090E0A0E0B5
:100C3000B0E012C080E0E81680E0F80680E0080727
:100C400081E0180728F088E190E0A0E0B0E004C05F
:100C500080E190E0A0E0B0E020E230E040E050E051
:100C6000281B390B4A0B5B0B04C016950795F794AC
:100C7000E7948A95D2F7F701EB55FF4F8081281B47
:100C8000310941095109C9011F910F91FF90EF905E
:100C90000895DF92EF92FF920F931F93FC01E4807F
:100CA000F58006811781D1808081823048F480E010
:100CB00090E0A0E1B0E0E82AF92A0A2B1B2BA5C09E
:100CC000843009F49FC0823021F4EE24FF24870190
:100CD00005C0E114F1040105110519F4E0E0F0E0AC
:100CE00096C0628173819FEF623879070CF05BC018
:100CF00022E83FEF261B370B2A3131052CF020E08C
:100D000030E040E050E02AC0B801A701022E04C044
:100D100076956795579547950A94D2F781E090E0CC
:100D2000A0E0B0E004C0880F991FAA1FBB1F2A953E
:100D3000D2F70197A109B1098E219F21A023B123E8
:100D40000097A105B10521F081E090E0A0E0B0E0BE
:100D50009A01AB01282B392B4A2B5B2BDA01C901F5
:100D60008F779070A070B07080349105A105B105A7
:100D700039F427FF09C0205C3F4F4F4F5F4F04C03D
:100D8000215C3F4F4F4F5F4FE0E0F0E02030A0E0AC
:100D90003A07A0E04A07A0E45A0710F0E1E0F0E0CB
:100DA00079018A0127C06038710564F5FB01E158BB
:100DB000FF4FD801C7018F779070A070B07080345A
:100DC0009105A105B10539F4E7FE0DC080E490E07E
:100DD000A0E0B0E004C08FE390E0A0E0B0E0E80E57
:100DE000F91E0A1F1B1F17FF05C016950795F794DC
:100DF000E794319687E016950795F794E7948A95DE
:100E0000D1F705C0EE24FF248701EFEFF0E06E2F4D
:100E1000679566276795902F9F77D794DD24D794A1
:100E20008E2F8695492F462B582F5D29B701CA0171
:100E30001F910F91FF90EF90DF900895FC01DB016F
:100E4000408151812281622F6F7770E0221F22271B
:100E5000221F9381892F880F822B282F30E0991F22
:100E60009927991F11969C93119721153105A9F582
:100E7000411551056105710511F482E037C082E822
:100E80009FEF13969C938E9312979A01AB0167E0A4
:100E9000220F331F441F551F6A95D1F783E08C93AF
:100EA0000DC0220F331F441F551F12968D919C9128
:100EB0001397019713969C938E931297203080E09E
:100EC000380780E0480780E4580758F314962D93BC
:100ED0003D934D935C93179708952F3F310579F417
:100EE000411551056105710519F484E08C9308954D
:100EF00064FF03C081E08C9312C01C9210C02F5776
:100F0000304013963C932E93129783E08C9387E0A6
:100F1000440F551F661F771F8A95D1F7706414968A
:100F20004D935D936D937C93179708951F93DC0108
:100F3000FB019C91923008F447C08081823008F414
:100F400043C0943051F411961C91843099F58181FD
:100F5000682F70E0611B71093FC0843021F092302E
:100F600031F48230B9F18181882389F12DC0119645
:100F70001C9111978230F1F081811817D9F41296E3
:100F80002D913C911397828193818217930794F05E
:100F900028173907BCF014968D919D910D90BC9146
:100FA000A02D2481358146815781281739074A07AA
:100FB0005B0718F4112341F00AC082179307A407B6
:100FC000B50740F4112319F061E070E005C06FEF40
:100FD0007FEF02C060E070E0CB011F910895EF92B7
:100FE000FF920F931F938130D1F1813038F082301E
:100FF00009F473C0833009F0DDC0ADC0662321F071
:10100000613009F0D7C00EC08FEF90E0489FB0016B
:10101000499F700D589F700D112480E090E00E9450
:10102000810513C0BA0180E090E00E9481059B0118
:10103000AC0160E070E088EC92E40E949B0220E04A
:1010400030E04FE753E40E94F90220E030E048EC42
:1010500052E40E94F3030E9423016CBFABC06623DD
:1010600021F0613009F0A6C010C08091F601909186
:10107000F701489FB001499F700D589F700D1124D2
:1010800080E090E00E9481051DC0BA0180E090E000
:101090000E9481059B01AC0160E070E088EC92E465
:1010A0000E949B027B018C016091F6017091F70117
:1010B00080E090E00E9481059B01AC01C801B7016E
:1010C0000E94F90220E030E048EC52E40E94F30371
:1010D0000E9423017BBD6ABD6DC0662321F0613093
:1010E00009F068C010C08091F6019091F701489F07
:1010F000B001499F700D589F700D112480E090E061
:101100000E9481051DC0BA0180E090E00E94810527
:101110009B01AC0160E070E088EC92E40E949B02CD
:101120007B018C016091F6017091F70180E090E005
:101130000E9481059B01AC01C801B7010E94F90220
:1011400020E030E048EC52E40E94F3030E942301C7
:1011500079BD68BD2FC0662319F0613059F50EC006
:101160008FEF90E0489FB001499F700D589F700D20
:10117000112480E090E00E94810513C0BA0180E054
:1011800090E00E9481059B01AC0160E070E088EC7A
:1011900092E40E949B0220E030E04FE753E40E947B
:1011A000F90220E030E048EC52E40E94F3030E9490
:1011B000230163BD1F910F91FF90EF900895FC01F3
:1011C000BB9A13BE93B790648181880F880F880FF4
:1011D000982B93BF83B723818062922F9295907F43
:1011E000892B83BF9281943069F0953018F4933045
:1011F00088F405C0892F8650843060F407C083B717
:10120000892B02C083B7836083BF04C083B7925029
:10121000982B93BF1CBE222319F0213051F50AC030
:1012200060852FEF629FB001112480E090E00E9462
:10123000810516C0608570E0882777FD8095982F1E
:101240000E94CF049B01AC0160E070E088EC92E466
:101250000E949B0220E030E04FE753E40E94F90235
:1012600020E030E048EC52E40E94F3030E942301A6
:101270006CBF12BE0895BF92CF92DF92EF92FF92A1
:101280000F931F93CF93DF93EC01B88081E0B816E2
:1012900021F082E0B81621F402C08D9A01C08C9A28
:1012A0001FBC1EBC8FB582608FBD9EB590618981C9
:1012B000880F880F880F982B9EBD81E0B81621F00B
:1012C00082E0B81681F408C09FB590688B81829542
:1012D000880F880F807C05C09FB590628B818295B6
:1012E000807F982B9FBD9A81943069F0953018F4D7
:1012F000933088F405C0892F8650843060F407C08D
:101300008EB5892B02C08EB583608EBD04C08EB5AC
:101310009250982B9EBD6E817F8180E090E020E00E
:1013200034E244EF50E00E9419160E9481057B01CF
:101330008C016C817D8180E090E00E94810520E03D
:1013400030E04AE754E40E94F9029B01AC01C80175
:10135000B7010E94F30320E030E040E85FE30E9421
:101360009B020E9423016B017093F7016093F601C9
:1013700077BD66BD81E0B81629F082E0B81609F0A5
:1013800079C03DC08B81882321F0813009F072C083
:101390000EC0888590E0C89EB001C99E700DD89E91
:1013A000700D112480E090E00E9481051DC06885C9
:1013B00070E0882777FD8095982F0E94CF049B01CD
:1013C000AC0160E070E088EC92E40E949B027B013B
:1013D0008C01B60180E090E00E9481059B01AC0188
:1013E000C801B7010E94F90220E030E048EC52E465
:1013F0000E94F3030E9423017BBD6ABD3BC08B8129
:10140000882319F08130B1F50EC0888590E0C89E20
:10141000B001C99E700DD89E700D112480E090E03F
:101420000E9481051DC0688570E0882777FD809542
:10143000982F0E94CF049B01AC0160E070E088EC23
:1014400092E40E949B027B018C01B60180E090E057
:101450000E9481059B01AC01C801B7010E94F902FD
:1014600020E030E048EC52E40E94F3030E942301A4
:1014700079BD68BD1DBC1CBCDF91CF911F910F9140
:10148000FF90EF90DF90CF90BF900895FC018F9A6E
:1014900015BC95B590648181880F880F880F982BB3
:1014A00095BD83B723818062922F9295907F892B7F
:1014B00083BF9281892F8850823018F085B5892B9F
:1014C00085BD13BC222319F0213051F50AC0608577
:1014D0002FEF629FB001112480E090E00E9481050F
:1014E00016C0608570E0882777FD8095982F0E9450
:1014F000CF049B01AC0160E070E088EC92E40E94B4
:101500009B0220E030E04FE753E40E94F90220E024
:1015100030E048EC52E40E94F3030E94230163BDD3
:1015200014BC0895FC018081833018F4813040F4AC
:1015300003C0833061F408C0CF010E94DF08089522
:10154000CF010E943B090895CF010E94460A0895E9
:101550000F931F93082F81E061E041E00E94521336
:1015600081E062E040E00E94521315E0812F8A95ED
:10157000F1F781E060E041E00E945213812F8A95EB
:10158000F1F7602F607F80E00E94E013812F8A9541
:10159000F1F781E060E040E00E945213812F8A95CC
:1015A000F1F781E060E041E00E945213812F8A95BB
:1015B000F1F70295007F80E0602F0E94E013812FF9
:1015C0008A95F1F781E060E040E00E9452131A959D
:1015D000F1F71F910F910895EF92FF920F931F93D0
:1015E000DF93CF9300D000D00F92CDB7DEB78C0140
:1015F00097FF06C08DE20E94A80A109501951F4F23
:1016000019821A821B821C821D827E010894E11CB1
:10161000F11CC8016AE070E00E943816805DF70195
:1016200081937F01C8016AE070E00E9438168B0147
:101630001616170674F38E010F5F1F4FF701829184
:101640007F010E94A80AE016F106C1F70F900F90E3
:101650000F900F900F90CF91DF911F910F91FF90FE
:10166000EF9008959F92AF92BF92CF92DF92EF9248
:10167000FF920F931F935B016C010E942301DC0119
:10168000CB017C010E94EC0A8EE20E94A80A00E0D5
:1016900010E0C801B7010E9481059B01AC01C601A1
:1016A000B5010E949B02992420E030E040E251E421
:1016B0000E94F9025B016C010E9423017B018C01F5
:1016C000862F805D0E94A80A6E2D70E0882777FD26
:1016D0008095982F0E94CF049B01AC01C601B501F3
:1016E0000E949B02939423E09216F1F61F910F91B2
:1016F000FF90EF90DF90CF90BF90AF909F900895B4
:10170000CF93DF93EC0103C00E94A80A2196888141
:101710008823D1F7DF91CF9108950F931F93082F5E
:1017200081E061E040E00E94521381E062E040E02D
:101730000E94521315E0812F8A95F1F781E060E055
:1017400041E00E945213812F8A95F1F7602F607F4C
:1017500080E00E94E013812F8A95F1F781E060E03C
:1017600040E00E945213812F8A95F1F781E060E0FA
:1017700041E00E945213812F8A95F1F70295007F74
:1017800080E0602F0E94E013812F8A95F1F781E0BD
:1017900060E040E00E9452131A95F1F71F910F91FB
:1017A00008950F931F93CF93DF938C01862F880F9B
:1017B000880F880F805C0E948D0BC0E0D0E0F8019C
:1017C000EC0FFD1F80810E94A80A2196C830D10528
:1017D000B1F7DF91CF911F910F910895813059F0AA
:1017E000813030F0823051F0833059F080E00BC00E
:1017F000862F806808C0862F806C05C0862F84697C
:1018000002C0862F846D0E948D0B089581E061E0F7
:1018100041E00E942C1381E062E041E00E942C1321
:1018200081E060E041E00E942C1380E061E00E94D2
:10183000BA1382E00E948D0B88E20E948D0B8FE02C
:101840000E948D0B81E00E948D0B08959EB59F7BB9
:101850009EBD882339F48EB56295660F660F607C55
:10186000862B8EBD0895882311F41DBC1CBC0895E1
:10187000882319F020E030E002C026B537B5C90151
:101880000895882359F488B782958695877080FFDC
:1018900005C088B7806288BF81E0089580E0089520
:1018A000FC018E981FBC1EBC8EB59181892B8EBD0C
:1018B0009EB582818295880F880F807C892B8EBD92
:1018C00099B783818295880F807E892B89BF1DBC43
:1018D0001CBC17BC16BC0895FC018081882319F438
:1018E000CF010E94500C08956F927F928F929F9229
:1018F000AF92BF92CF92DF92EF92FF920F931F931E
:10190000CF93DF935C01EB0188B7806288BF80E0F2
:1019100061E00E94260C80E00E94410C8823D9F3EC
:1019200080E060E00E94260C1DBC1CBC88B7806271
:1019300088BFEE24FF2487010EC008B602FE0BC04C
:1019400088B7846088BF80E090E0A1E0B0E0E80E56
:10195000F91E0A1F1B1F80E00E94410C882369F3B7
:1019600086B597B53C01882499246E0C7F1C801E97
:10197000911E80E061E00E94260C1DBC1CBC88B753
:10198000806205C008B602FE03C088B7846088BFC5
:1019900080E00E94410C8823A9F3E6B4F7B4CC247C
:1019A000DD24C401B301A60195010E9419160E940D
:1019B000810520E030E04AE754E40E94F90220E08B
:1019C00034E244E75BE40E94F303688379838A830B
:1019D0009B8300E010E06E0C7F1C801E911EC401F2
:1019E000B301A60195010E9419160E94810520E00D
:1019F00030E04AE754E40E94F90220E034E244E790
:101A00005BE40E94F3036C837D838E839F83DF916D
:101A1000CF911F910F91FF90EF90DF90CF90BF90EB
:101A2000AF909F908F907F906F900895882321F4BE
:101A3000CB01BA010E94740C0895FC0180818130B1
:101A400099F1813020F0823009F083C05DC013BE6F
:101A500083B72181822B83BF9281943069F09530C6
:101A600018F4933088F405C0892F8650843060F4D0
:101A700007C083B7892B02C083B7836083BF04C0CC
:101A800083B79250982B93BF89B78C7F89BF22234D
:101A900021F0213009F05DC003C089B793814FC0A8
:101AA00099B78381880F4BC01FBC1EBC8EB52181A6
:101AB000822B8EBD9281943069F0953018F493306A
:101AC00088F405C0892F8650843060F407C08EB535
:101AD000892B02C08EB583608EBD04C08EB5925036
:101AE000982B9EBD89B7837E89BF222319F02130B0
:101AF00081F505C099B78381880F880F20C099B7F9
:101B000083818295807F1BC015BC85B59181892B0F
:101B100085BD2281822F8850823018F085B5822BB6
:101B200085BD89B78F7389BF992319F0913089F4E6
:101B300009C099B783818295880F880F807C892B93
:101B400089BF089599B78381879588278795892BC1
:101B500089BF0895CF93DF93EC018A81843009F423
:101B600042C0853038F4823001F1833068F581302D
:101B700051F40CC0863009F454C0863008F442C0D9
:101B8000873009F45DC020E030E06DC080E090E077
:101B900020E034E244EF50E00E9419160E948105D3
:101BA00020E034E244E759E459C080E090E020E0CE
:101BB00034E244EF50E00E9419160E94810520E0B3
:101BC00034E244EF5AE44AC080E090E020E034E29E
:101BD00044EF50E00E9419160E94810520E034E293
:101BE00044EF5BE43BC080E090E020E034E244EF6F
:101BF00050E00E9419160E94810520E034E244E77B
:101C00005CE42CC080E090E020E034E244EF50E05F
:101C10000E9419160E94810520E034E244EF5CE442
:101C20001DC080E090E020E034E244EF50E00E94EC
:101C300019160E94810520E034E244E75DE40EC0FD
:101C400080E090E020E034E244EF50E00E9419167A
:101C50000E94810520E034E244E75EE40E94F30341
:101C60000E9423019B018881813039F1813020F06D
:101C7000823009F080C058C089B78C7F89BF8981C4
:101C8000882379F0813009F076C02CBF12BE08B6E7
:101C900001FEFDCF88B7826088BF99B78B81880F1E
:101CA00068C0822F819582BF08B600FEFDCF88B73D
:101CB000816088BF89B79B815CC089B7837C89BFFD
:101CC0008981882391F0813009F055C02ABD3BBD40
:101CD0001CBC1DBC08B604FEFDCF88B7806188BF60
:101CE00099B78B818295807F44C0822F80958CBD6F
:101CF00040E050E08FEF9FEFA0E0B0E0821B930B3D
:101D0000A40BB50B892F9A2FAB2FBB27A7FDBA9534
:101D10008DBD08B602FEFDCF88B7846088BF99B735
:101D20008B81880F880F25C089B78F7389BF898100
:101D3000882381F08130F9F423BD14BC08B607FE76
:101D4000FDCF88B7806888BF99B78B818795882732
:101D500087950FC0822F819584BD08B606FEFDCF02
:101D600088B7806488BF99B78B818295880F880F68
:101D7000807C892B89BFDF91CF910895CF93DF932A
:101D8000EC018A81843009F442C0853038F4823015
:101D900001F1833068F5813051F40CC0863009F4CC
:101DA00054C0863008F442C0873009F45DC060E05A
:101DB00070E06CC080E090E020E034E244EF50E05E
:101DC0000E9419160E94810520E030E04AE754E4A1
:101DD00059C080E090E020E034E244EF50E00E94FF
:101DE00019160E94810520E030E04AEF55E44AC010
:101DF00080E090E020E034E244EF50E00E941916C9
:101E00000E94810520E030E04AEF56E43BC080E0CC
:101E100090E020E034E244EF50E00E9419160E9466
:101E2000810520E030E04AE757E42CC080E090E0F4
:101E300020E034E244EF50E00E9419160E94810530
:101E400020E030E04AEF57E41DC080E090E020E061
:101E500034E244EF50E00E9419160E94810520E010
:101E600030E04AE758E40EC080E090E020E034E241
:101E700044EF50E00E9419160E94810520E030E0F6
:101E80004AE759E40E94F3030E94230188818130CC
:101E900039F1813020F0823009F072C04AC089B730
:101EA0008C7F89BF8981882379F0813009F068C0EF
:101EB0006CBF12BE08B601FEFDCF88B7826088BF36
:101EC00099B78B81880F5AC0862F819582BF08B63B
:101ED00000FEFDCF88B7816088BF89B79B814EC067
:101EE00089B7837C89BF8981882391F0813009F08B
:101EF00047C07BBD6ABD1DBC1CBC08B604FEFDCF3F
:101F000088B7806188BF99B78B818295807F36C002
:101F1000862F80958CBD609570957DBD08B602FEBC
:101F2000FDCF88B7846088BF99B78B81880F880FF1
:101F300025C089B78F7389BF8981882381F081305B
:101F4000F9F463BD14BC08B607FEFDCF88B78068FE
:101F500088BF99B78B818795882787950FC0862F73
:101F6000819584BD08B606FEFDCF88B7806488BF22
:101F700099B78B818295880F880F807C892B89BFC8
:101F8000DF91CF910895FC018081813081F0813013
:101F900018F0823061F519C08181882319F08130F1
:101FA00031F502C088B71CC088B7869519C08181F9
:101FB000882319F08130D9F404C088B786958695B6
:101FC0000FC088B782958F700BC08181882319F06C
:101FD000813069F407C088B78295869586958370AD
:101FE0008170089588B7881F8827881F089581E029
:101FF000089581E066E040E00E94521385E38A95EF
:10200000F1F781E066E041E00E94521308958130CB
:1020100059F0813028F0823081F0833019F518C0F2
:1020200081E064E040E003C081E064E041E00E94C0
:10203000521381E065E040E008C081E064E040E0E8
:102040000E94521381E065E041E00E94521308951E
:1020500081E064E041E00E94521381E065E041E0EC
:102060000E94521308951F93182F81E062E041E00F
:102070000E94521381E061E040E00E94521380E030
:10208000612F0E94AB1381E060E041E00E94521397
:102090008AE18A95F1F781E060E040E00E94521306
:1020A0001F9108951F93182F81E062E040E00E9485
:1020B000521381E061E040E00E94521380E0612F02
:1020C0000E94AB1381E060E041E00E9452138AE17C
:1020D0008A95F1F781E060E040E00E9452131F9181
:1020E00008951F93182F883070F481E00E94071024
:1020F0001093F801812F88540E9452101092F90118
:1021000080E40E9452101F9108950F931F9300E0E6
:10211000802F0E94711083E00E94071010E4812F2D
:102120000E94521080E00E9433101F5F1038B9F7F0
:102130000F5F083069F70E94F90F81E00E940710D5
:102140001092FA0180E00E9471101F910F91089582
:102150009F92AF92BF92CF92DF92EF92FF920F9336
:102160001F93CF93DF93922EA32EB42EC52ED62E7F
:10217000E72EF82E192FC0E0D0E08091F8018854A6
:102180000E9452108091F901805C0E945210292D0A
:102190003A2D4B2D5C2D6D2D7E2D8F2D912F0C2FDB
:1021A0000E94A400822F0E9433108091F9018F5F5A
:1021B0008093F901803448F08091FA01882329F452
:1021C00082E00E9407101092F9012896C832D105CA
:1021D000A1F6DF91CF911F910F91FF90EF90DF90CB
:1021E000CF90BF90AF909F900895982F8091FA0163
:1021F000882329F08091F901893308F0E5C0892FFF
:1022000090E0FC01B097EB35F10508F0C0C0E65D49
:10221000FF4FEE0FFF1F0590F491E02D09942CE77E
:1022200032E141E152E16CE7ADC02FE739E049E02E
:1022300059E02EC02FE739E049E159E26FE4A2C02E
:102240002FE739E449E459E444C02EE131E241E3A7
:102250005EE36DC02FE330E440E450E46FE392C0EE
:102260002FE732E04CE150E28CC02EE331E441E450
:102270002FC023E03CE040E75CE063E083C02FE751
:1022800031E441E45EE33CC021E031E04FE751E05E
:1022900061E078C02FE738E044E152E21AC02FE74E
:1022A00038E048E058E06DC021E631E549E455E406
:1022B00063E468C02FE732E04CE052E062C02FE4F4
:1022C00039E449E459E469EF5DC021E431E44FE7C2
:1022D00051E461E457C023EC33E748E15EEC63EC82
:1022E00051C024E234E244E254E264E24BC020E014
:1022F00030E740E750E704C020E030E040E050E045
:1023000060E040C028E138E148E158E168E13AC0C6
:102310002EE331E549E455E46EE334C024E432E4CD
:102320004FE750E404C026E431E641E55EE460E4B2
:1023300029C021E439E449E459E466E323C028E1F3
:1023400034E142E15FE760E11DC02FE439E449E494
:1023500051E561E217C02CE73AE449E459E461E34E
:1023600011C021E039E449E259E16FE00BC027E7F1
:1023700039E449E459E467E705C02FE439E449E466
:1023800059E46FE770E080E090E00E94A81080912F
:10239000F80188540E9452108091F901805C0E94DB
:1023A000521080E00E9433108091F9018F5F80937A
:1023B000F901803448F08091FA01882329F482E001
:1023C0000E9407101092F9010895CF92DF92EF92C8
:1023D000FF920F931F93DF93CF9300D000D00F9203
:1023E000CDB7DEB77B018C0197FF0BC08DE20E9459
:1023F000F51010950095F094E094E11CF11C011D7E
:10240000111D19821A821B821C821D826E01089482
:10241000C11CD11CC801B7012AE030E040E050E007
:102420000E944B16605DF60161936F01C801B70110
:102430002AE030E040E050E00E944B16C901DA018A
:102440007C018D011E141F04100611061CF38E0161
:102450000F5F1F4FF60182916F010E94F510C016A9
:10246000D106C1F70F900F900F900F900F90CF9162
:10247000DF911F910F91FF90EF90DF90CF90089523
:102480009F92AF92BF92CF92DF92EF92FF920F9303
:102490001F937B018C010E9423015B01CC24DD246E
:1024A000C601B5010E94E5118EE20E94F510C60139
:1024B000B5010E9481059B01AC01C801B7010E94D2
:1024C0009B02992420E030E040E251E40E94F902AE
:1024D0005B016C010E9423017B018C01862F805DD2
:1024E0000E94F5106E2D70E0882777FD8095982F5B
:1024F0000E94CF049B01AC01C601B5010E949B0262
:10250000939423E09216F1F61F910F91FF90EF90B4
:10251000DF90CF90BF90AF909F900895CF93DF93BF
:10252000EC0103C00E94F510219688818823D1F721
:10253000DF91CF91089581E060E041E00E942C138B
:1025400081E062E041E00E942C1381E061E041E023
:102550000E942C1381E066E041E00E942C1381E090
:1025600064E041E00E942C1381E065E041E00E94BC
:102570002C1380E061E00E949A1381E066E041E064
:102580000E94521383E00E9407108EE30E945210B3
:1025900088EB0E9452101092F80180E40E945210C1
:1025A0001092F90180EC0E9452108FE30E945210A9
:1025B00081E00E9407101092FA0108958130C1F065
:1025C000813030F0823021F1833009F041C030C0D9
:1025D000613029F0613030F06230D1F506C02BE374
:1025E00030E038C02AE330E035C029E330E032C0C3
:1025F000613029F0613030F0623051F506C028E3D7
:1026000030E028C027E330E025C026E330E022C0D8
:10261000613029F0613030F06230D1F406C025E33A
:1026200030E018C024E330E015C023E330E012C0EE
:10263000613029F0613030F0623051F406C022E39D
:1026400030E008C021E330E005C020E330E002C004
:1026500020E030E0C90108950F931F93062F142F37
:1026600060E00E94DE12FC01112319F01130B9F470
:102670000CC0208181E090E002C0880F991F0A956C
:10268000E2F78095822380830AC0208181E090E078
:1026900002C0880F991F0A95E2F7282B20831F910B
:1026A0000F9108950F931F93062F142F61E00E943E
:1026B000DE12FC01112319F01130B9F40CC0208195
:1026C00081E090E002C0880F991F0A95E2F780959B
:1026D000822380830AC0208181E090E002C0880FBD
:1026E000991F0A95E2F7282B20831F910F910895D7
:1026F0001F93162F61E00E94DE12FC01208181E011
:1027000090E002C0880F991F1A95E2F728272083CE
:102710001F9108951F93162F62E00E94DE12FC01A4
:10272000808190E002C0959587951A95E2F78170B7
:102730001F9108951F93162F60E00E94DE12FC0186
:10274000112319F0113029F402C0108202C08FEF5A
:1027500080831F9108951F93162F61E00E94DE125F
:10276000FC0110831F91089562E00E94DE12FC01BB
:10277000808108951F93162F60E00E94DE12FC01F5
:10278000112319F0113039F403C080818F7002C019
:102790008081806F80831F9108951F93162F60E0C2
:1027A0000E94DE12FC01112319F0113039F403C02C
:1027B0008081807F02C080818F6080831F91089517
:1027C0001F93162F61E00E94DE12FC0180818F7042
:1027D00080838081107F812B80831F9108951F93B8
:1027E000162F61E00E94DE12FC018081807F8083D1
:1027F00080811F70812B80831F91089562E00E9469
:10280000DE12FC01808182958F70089562E00E9443
:10281000DE12FC0180818F700895AF92BF92CF923B
:10282000DF92EF92FF920F931F93DF93CF93CDB779
:10283000DEB7EC970FB6F894DEBF0FBECDBF7C01BC
:102840005A016B010E94851080E00E947110DE0128
:102850005096E0E6F0E08CE001900D928150E1F7B7
:10286000FE017C9683E0DF011D928A95E9F7CE0197
:1028700040960E948E12F70165857685878590893E
:102880000E944012DE011196EFE6F0E085E0019033
:102890000D928150E1F7CE0101960E948E1281E0E7
:1028A0000E947110DE015F96E5E7F0E087E001909D
:1028B0000D928150E1F7FE01B69688E0DF011D928E
:1028C0008A95E9F7CE014F960E948E12F70160813A
:1028D00070E080E090E00E94E5118091840090918A
:1028E0008500A0918600B09187008E839F83A88782
:1028F000B9871A86CE0106960E948E1286E00E9443
:10290000711000E020E430E44EE752E062E070E055
:1029100080E090E00E94A8100B5F10E00BC022E066
:1029200032E042E052E062E070E080E090E00E943D
:10293000A8101F5FD70111966D917D918D919C918B
:102940001497A60195010E94F3030E9423010B5FD7
:10295000161728F322E032E04EE750E460E470E01E
:1029600080E090E00E94A81010E00CC020E430E469
:1029700040E450E460E470E080E090E00E94A81041
:102980000B5F1F5FF7016581768187819085A601C6
:1029900095010E94F3030E942301161738F30837AC
:1029A00008F4B0CF85E00E94711020E03EE348E0DB
:1029B0005CE16AE270E080E090E00E94A81010E024
:1029C0000BC028E038E048E058E068E070E080E0C4
:1029D00090E00E94A8101F5FD70111966D917D9124
:1029E0008D919C911497A60195010E94F3030E947A
:1029F0002301161730F328E038E048E058E068E09B
:102A000070E080E090E00E94A81010E00BC028E089
:102A100038E048E058E068E070E080E090E00E9434
:102A2000A8101F5FF7016581768187819085A601D7
:102A300095010E94F3030E942301161740F32AE236
:102A40003CE148E05EE360E070E080E090E00E94FE
:102A5000A81084E00E947110DE019E96E9E8F0E083
:102A600088E001900D928150E1F7FE01F69687E033
:102A7000DF011D928A95E9F7CE018E960E948E1293
:102A8000F70161857285838594850E944012DE017D
:102A90001B96E8E9F0E085E001900D928150E1F7A6
:102AA000CE010B960E948E12EC960FB6F894DEBF04
:102AB0000FBECDBFCF91DF911F910F91FF90EF908F
:102AC000DF90CF90BF90AF9008958F929F92AF927A
:102AD000BF92CF92DF92EF92FF920F931F93DF93FB
:102AE000CF93CDB7DEB728970FB6F894DEBF0FBEF1
:102AF000CDBF4C01DE011196EEEEF1E088E00190D1
:102B00000D928150E1F768E070E0AE014F5F5F4FDA
:102B10000E94160DAD80BE80CF80D884F401A186BE
:102B2000B286C386D486E980FA800B811C81E1825B
:102B3000F28203831483C601B501A80197010E94A4
:102B40009B02F401658376838783908760E070E061
:102B500080E89FE3A60195010E94F303F4016587D5
:102B600076878787908BC801B70120E030E048EC7A
:102B700052E40E94F902A60195010E94F3030E940B
:102B80002301F401608328960FB6F894DEBF0FBED0
:102B9000CDBFCF91DF911F910F91FF90EF90DF900C
:102BA000CF90BF90AF909F908F9008950E949B12FE
:102BB0000E9485108DED91E00E94920A86EE91E0D0
:102BC0000E946C0C0895EF92FF920F931F93DF9376
:102BD000CF93CDB7DEB761970FB6F894DEBF0FBEC7
:102BE000CDBF0E94D615FE01319681E1DF011D9215
:102BF0008A95E9F78F0180E9E82E81E0F82EC80177
:102C00000E9465156A857B858C859D8520E030E076
:102C100040EA50E40E94F303AB01BC01C8010E94EA
:102C20000D1488EE93E0F7013197F1F70197D9F78A
:102C3000E6CF629FD001739FF001829FE00DF11DEE
:102C4000649FE00DF11D929FF00D839FF00D749F26
:102C5000F00D659FF00D9927729FB00DE11DF91FD2
:102C6000639FB00DE11DF91FBD01CF01112408952F
:102C700097FB092E07260AD077FD04D027D006D06F
:102C800000201AF4709561957F4F0895F6F790959E
:102C900081959F4F089597FB092E05260ED057FD6D
:102CA00004D028D00AD0001C38F4509540953095B7
:102CB00021953F4F4F4F5F4F0895F6F790958095C0
:102CC000709561957F4F8F4F9F4F0895AA1BBB1B37
:102CD00051E107C0AA1FBB1FA617B70710F0A61B1C
:102CE000B70B881F991F5A95A9F780959095BC013D
:102CF000CD010895A1E21A2EAA1BBB1BFD010DC038
:102D0000AA1FBB1FEE1FFF1FA217B307E407F5079B
:102D100020F0A21BB30BE40BF50B661F771F881F77
:102D2000991F1A9469F760957095809590959B010D
:102D3000AC01BD01CF0108952F923F924F925F9257
:102D40006F927F928F929F92AF92BF92CF92DF92BB
:102D5000EF92FF920F931F93CF93DF93CDB7DEB720
:102D6000CA1BDB0B0FB6F894DEBF0FBECDBF0994B4
:102D70002A88398848885F846E847D848C849B840B
:102D8000AA84B984C884DF80EE80FD800C811B8119
:102D9000AA81B981CE0FD11D0FB6F894DEBF0FBE48
:0A2DA000CDBFED010895F894FFCFB8
:102DAA004672657175656E63793D0000000000200A
:102DBA006B487A0000447574793D000000000000F9
:102DCA000000000020250000002054696D653D00C8
:102DDA000000000000000000206D730000000000E9
:102DEA0000000000000001020203030303040404BC
:102DFA00040404040405050505050505050505057E
:102E0A00050505050506060606060606060606065D
:102E1A000606060606060606060606060606060648
:102E2A00060606060607070707070707070707072D
:102E3A000707070707070707070707070707070718
:102E4A000707070707070707070707070707070708
:102E5A0007070707070707070707070707070707F8
:102E6A0007070707070808080808080808080808DD
:102E7A0008080808080808080808080808080808C8
:102E8A0008080808080808080808080808080808B8
:102E9A0008080808080808080808080808080808A8
:102EAA000808080808080808080808080808080898
:102EBA000808080808080808080808080808080888
:102ECA000808080808080808080808080808080878
:102EDA000808080808080808080808080808080868
:102EEA0008080808080000000000001F001F000072
:102EFA0000000000000704040404041C001C04046D
:102F0A0004040407000111091D091100001011121F
:102F1A0017121100000000001F000000000000044A
:102F2A000100010400320002000002010200000058
:062F3A0000000000000091
:00000001FF
